{
  "_format": "hh-sol-artifact-1",
  "contractName": "NFT42",
  "sourceName": "code/NFT42.sol",
  "abi": [
    {
      "inputs": [
        {
          "internalType": "string",
          "name": "baseURI",
          "type": "string"
        }
      ],
      "stateMutability": "nonpayable",
      "type": "constructor"
    },
    {
      "anonymous": false,
      "inputs": [
        {
          "indexed": true,
          "internalType": "address",
          "name": "owner",
          "type": "address"
        },
        {
          "indexed": true,
          "internalType": "address",
          "name": "approved",
          "type": "address"
        },
        {
          "indexed": true,
          "internalType": "uint256",
          "name": "tokenId",
          "type": "uint256"
        }
      ],
      "name": "Approval",
      "type": "event"
    },
    {
      "anonymous": false,
      "inputs": [
        {
          "indexed": true,
          "internalType": "address",
          "name": "owner",
          "type": "address"
        },
        {
          "indexed": true,
          "internalType": "address",
          "name": "operator",
          "type": "address"
        },
        {
          "indexed": false,
          "internalType": "bool",
          "name": "approved",
          "type": "bool"
        }
      ],
      "name": "ApprovalForAll",
      "type": "event"
    },
    {
      "anonymous": false,
      "inputs": [
        {
          "indexed": true,
          "internalType": "address",
          "name": "previousOwner",
          "type": "address"
        },
        {
          "indexed": true,
          "internalType": "address",
          "name": "newOwner",
          "type": "address"
        }
      ],
      "name": "OwnershipTransferred",
      "type": "event"
    },
    {
      "anonymous": false,
      "inputs": [
        {
          "indexed": true,
          "internalType": "address",
          "name": "from",
          "type": "address"
        },
        {
          "indexed": true,
          "internalType": "address",
          "name": "to",
          "type": "address"
        },
        {
          "indexed": true,
          "internalType": "uint256",
          "name": "tokenId",
          "type": "uint256"
        }
      ],
      "name": "Transfer",
      "type": "event"
    },
    {
      "inputs": [
        {
          "internalType": "address",
          "name": "to",
          "type": "address"
        },
        {
          "internalType": "uint256",
          "name": "tokenId",
          "type": "uint256"
        }
      ],
      "name": "approve",
      "outputs": [],
      "stateMutability": "nonpayable",
      "type": "function"
    },
    {
      "inputs": [
        {
          "internalType": "address",
          "name": "owner",
          "type": "address"
        }
      ],
      "name": "balanceOf",
      "outputs": [
        {
          "internalType": "uint256",
          "name": "",
          "type": "uint256"
        }
      ],
      "stateMutability": "view",
      "type": "function"
    },
    {
      "inputs": [
        {
          "internalType": "uint256",
          "name": "tokenId",
          "type": "uint256"
        }
      ],
      "name": "getApproved",
      "outputs": [
        {
          "internalType": "address",
          "name": "",
          "type": "address"
        }
      ],
      "stateMutability": "view",
      "type": "function"
    },
    {
      "inputs": [],
      "name": "getCurrentTokenId",
      "outputs": [
        {
          "internalType": "uint256",
          "name": "",
          "type": "uint256"
        }
      ],
      "stateMutability": "view",
      "type": "function"
    },
    {
      "inputs": [
        {
          "internalType": "address",
          "name": "owner",
          "type": "address"
        },
        {
          "internalType": "address",
          "name": "operator",
          "type": "address"
        }
      ],
      "name": "isApprovedForAll",
      "outputs": [
        {
          "internalType": "bool",
          "name": "",
          "type": "bool"
        }
      ],
      "stateMutability": "view",
      "type": "function"
    },
    {
      "inputs": [],
      "name": "mint",
      "outputs": [],
      "stateMutability": "nonpayable",
      "type": "function"
    },
    {
      "inputs": [],
      "name": "name",
      "outputs": [
        {
          "internalType": "string",
          "name": "",
          "type": "string"
        }
      ],
      "stateMutability": "view",
      "type": "function"
    },
    {
      "inputs": [],
      "name": "owner",
      "outputs": [
        {
          "internalType": "address",
          "name": "",
          "type": "address"
        }
      ],
      "stateMutability": "view",
      "type": "function"
    },
    {
      "inputs": [
        {
          "internalType": "uint256",
          "name": "tokenId",
          "type": "uint256"
        }
      ],
      "name": "ownerOf",
      "outputs": [
        {
          "internalType": "address",
          "name": "",
          "type": "address"
        }
      ],
      "stateMutability": "view",
      "type": "function"
    },
    {
      "inputs": [],
      "name": "renounceOwnership",
      "outputs": [],
      "stateMutability": "nonpayable",
      "type": "function"
    },
    {
      "inputs": [
        {
          "internalType": "address",
          "name": "from",
          "type": "address"
        },
        {
          "internalType": "address",
          "name": "to",
          "type": "address"
        },
        {
          "internalType": "uint256",
          "name": "tokenId",
          "type": "uint256"
        }
      ],
      "name": "safeTransferFrom",
      "outputs": [],
      "stateMutability": "nonpayable",
      "type": "function"
    },
    {
      "inputs": [
        {
          "internalType": "address",
          "name": "from",
          "type": "address"
        },
        {
          "internalType": "address",
          "name": "to",
          "type": "address"
        },
        {
          "internalType": "uint256",
          "name": "tokenId",
          "type": "uint256"
        },
        {
          "internalType": "bytes",
          "name": "data",
          "type": "bytes"
        }
      ],
      "name": "safeTransferFrom",
      "outputs": [],
      "stateMutability": "nonpayable",
      "type": "function"
    },
    {
      "inputs": [
        {
          "internalType": "address",
          "name": "operator",
          "type": "address"
        },
        {
          "internalType": "bool",
          "name": "approved",
          "type": "bool"
        }
      ],
      "name": "setApprovalForAll",
      "outputs": [],
      "stateMutability": "nonpayable",
      "type": "function"
    },
    {
      "inputs": [
        {
          "internalType": "string",
          "name": "baseURI",
          "type": "string"
        }
      ],
      "name": "setBaseURI",
      "outputs": [],
      "stateMutability": "nonpayable",
      "type": "function"
    },
    {
      "inputs": [
        {
          "internalType": "bytes4",
          "name": "interfaceId",
          "type": "bytes4"
        }
      ],
      "name": "supportsInterface",
      "outputs": [
        {
          "internalType": "bool",
          "name": "",
          "type": "bool"
        }
      ],
      "stateMutability": "view",
      "type": "function"
    },
    {
      "inputs": [],
      "name": "symbol",
      "outputs": [
        {
          "internalType": "string",
          "name": "",
          "type": "string"
        }
      ],
      "stateMutability": "view",
      "type": "function"
    },
    {
      "inputs": [
        {
          "internalType": "uint256",
          "name": "tokenId",
          "type": "uint256"
        }
      ],
      "name": "tokenURI",
      "outputs": [
        {
          "internalType": "string",
          "name": "",
          "type": "string"
        }
      ],
      "stateMutability": "view",
      "type": "function"
    },
    {
      "inputs": [
        {
          "internalType": "address",
          "name": "from",
          "type": "address"
        },
        {
          "internalType": "address",
          "name": "to",
          "type": "address"
        },
        {
          "internalType": "uint256",
          "name": "tokenId",
          "type": "uint256"
        }
      ],
      "name": "transferFrom",
      "outputs": [],
      "stateMutability": "nonpayable",
      "type": "function"
    },
    {
      "inputs": [
        {
          "internalType": "address",
          "name": "newOwner",
          "type": "address"
        }
      ],
      "name": "transferOwnership",
      "outputs": [],
      "stateMutability": "nonpayable",
      "type": "function"
    }
  ],
  "bytecode": "0x60806040523480156200001157600080fd5b506040516200341438038062003414833981810160405281019062000037919062000363565b6040518060400160405280600581526020017f4e465434320000000000000000000000000000000000000000000000000000008152506040518060400160405280600581526020017f4e465434320000000000000000000000000000000000000000000000000000008152508160009081620000b49190620005ff565b508060019081620000c69190620005ff565b505050620000e9620000dd6200010260201b60201c565b6200010a60201b60201c565b8060079081620000fa9190620005ff565b5050620006e6565b600033905090565b6000600660009054906101000a900473ffffffffffffffffffffffffffffffffffffffff16905081600660006101000a81548173ffffffffffffffffffffffffffffffffffffffff021916908373ffffffffffffffffffffffffffffffffffffffff1602179055508173ffffffffffffffffffffffffffffffffffffffff168173ffffffffffffffffffffffffffffffffffffffff167f8be0079c531659141344cd1fd0a4f28419497f9722a3daafe3b4186f6b6457e060405160405180910390a35050565b6000604051905090565b600080fd5b600080fd5b600080fd5b600080fd5b6000601f19601f8301169050919050565b7f4e487b7100000000000000000000000000000000000000000000000000000000600052604160045260246000fd5b6200023982620001ee565b810181811067ffffffffffffffff821117156200025b576200025a620001ff565b5b80604052505050565b600062000270620001d0565b90506200027e82826200022e565b919050565b600067ffffffffffffffff821115620002a157620002a0620001ff565b5b620002ac82620001ee565b9050602081019050919050565b60005b83811015620002d9578082015181840152602081019050620002bc565b60008484015250505050565b6000620002fc620002f68462000283565b62000264565b9050828152602081018484840111156200031b576200031a620001e9565b5b62000328848285620002b9565b509392505050565b600082601f830112620003485762000347620001e4565b5b81516200035a848260208601620002e5565b91505092915050565b6000602082840312156200037c576200037b620001da565b5b600082015167ffffffffffffffff8111156200039d576200039c620001df565b5b620003ab8482850162000330565b91505092915050565b600081519050919050565b7f4e487b7100000000000000000000000000000000000000000000000000000000600052602260045260246000fd5b600060028204905060018216806200040757607f821691505b6020821081036200041d576200041c620003bf565b5b50919050565b60008190508160005260206000209050919050565b60006020601f8301049050919050565b600082821b905092915050565b600060088302620004877fffffffffffffffffffffffffffffffffffffffffffffffffffffffffffffffff8262000448565b62000493868362000448565b95508019841693508086168417925050509392505050565b6000819050919050565b6000819050919050565b6000620004e0620004da620004d484620004ab565b620004b5565b620004ab565b9050919050565b6000819050919050565b620004fc83620004bf565b620005146200050b82620004e7565b84845462000455565b825550505050565b600090565b6200052b6200051c565b62000538818484620004f1565b505050565b5b8181101562000560576200055460008262000521565b6001810190506200053e565b5050565b601f821115620005af57620005798162000423565b620005848462000438565b8101602085101562000594578190505b620005ac620005a38562000438565b8301826200053d565b50505b505050565b600082821c905092915050565b6000620005d460001984600802620005b4565b1980831691505092915050565b6000620005ef8383620005c1565b9150826002028217905092915050565b6200060a82620003b4565b67ffffffffffffffff811115620006265762000625620001ff565b5b620006328254620003ee565b6200063f82828562000564565b600060209050601f83116001811462000677576000841562000662578287015190505b6200066e8582620005e1565b865550620006de565b601f198416620006878662000423565b60005b82811015620006b1578489015182556001820191506020850194506020810190506200068a565b86831015620006d15784890151620006cd601f891682620005c1565b8355505b6001600288020188555050505b505050505050565b612d1e80620006f66000396000f3fe608060405234801561001057600080fd5b50600436106101215760003560e01c80636352211e116100ad578063a22cb46511610071578063a22cb465146102e2578063b88d4fde146102fe578063c87b56dd1461031a578063e985e9c51461034a578063f2fde38b1461037a57610121565b80636352211e1461023c57806370a082311461026c578063715018a61461029c5780638da5cb5b146102a657806395d89b41146102c457610121565b80631249c58b116100f45780631249c58b146101c057806323b872dd146101ca57806342842e0e146101e657806355f804b314610202578063561892361461021e57610121565b806301ffc9a71461012657806306fdde0314610156578063081812fc14610174578063095ea7b3146101a4575b600080fd5b610140600480360381019061013b9190611b3d565b610396565b60405161014d9190611b85565b60405180910390f35b61015e610478565b60405161016b9190611c30565b60405180910390f35b61018e60048036038101906101899190611c88565b61050a565b60405161019b9190611cf6565b60405180910390f35b6101be60048036038101906101b99190611d3d565b610550565b005b6101c8610667565b005b6101e460048036038101906101df9190611d7d565b61069b565b005b61020060048036038101906101fb9190611d7d565b6106fb565b005b61021c60048036038101906102179190611f05565b61071b565b005b610226610736565b6040516102339190611f5d565b60405180910390f35b61025660048036038101906102519190611c88565b610740565b6040516102639190611cf6565b60405180910390f35b61028660048036038101906102819190611f78565b6107c6565b6040516102939190611f5d565b60405180910390f35b6102a461087d565b005b6102ae610891565b6040516102bb9190611cf6565b60405180910390f35b6102cc6108bb565b6040516102d99190611c30565b60405180910390f35b6102fc60048036038101906102f79190611fd1565b61094d565b005b610318600480360381019061031391906120b2565b610963565b005b610334600480360381019061032f9190611c88565b6109c5565b6040516103419190611c30565b60405180910390f35b610364600480360381019061035f9190612135565b610a2d565b6040516103719190611b85565b60405180910390f35b610394600480360381019061038f9190611f78565b610ac1565b005b60007f80ac58cd000000000000000000000000000000000000000000000000000000007bffffffffffffffffffffffffffffffffffffffffffffffffffffffff1916827bffffffffffffffffffffffffffffffffffffffffffffffffffffffff1916148061046157507f5b5e139f000000000000000000000000000000000000000000000000000000007bffffffffffffffffffffffffffffffffffffffffffffffffffffffff1916827bffffffffffffffffffffffffffffffffffffffffffffffffffffffff1916145b80610471575061047082610b44565b5b9050919050565b606060008054610487906121a4565b80601f01602080910402602001604051908101604052809291908181526020018280546104b3906121a4565b80156105005780601f106104d557610100808354040283529160200191610500565b820191906000526020600020905b8154815290600101906020018083116104e357829003601f168201915b5050505050905090565b600061051582610bae565b6004600083815260200190815260200160002060009054906101000a900473ffffffffffffffffffffffffffffffffffffffff169050919050565b600061055b82610740565b90508073ffffffffffffffffffffffffffffffffffffffff168373ffffffffffffffffffffffffffffffffffffffff16036105cb576040517f08c379a00000000000000000000000000000000000000000000000000000000081526004016105c290612247565b60405180910390fd5b8073ffffffffffffffffffffffffffffffffffffffff166105ea610bf9565b73ffffffffffffffffffffffffffffffffffffffff161480610619575061061881610613610bf9565b610a2d565b5b610658576040517f08c379a000000000000000000000000000000000000000000000000000000000815260040161064f906122d9565b60405180910390fd5b6106628383610c01565b505050565b61066f610cba565b600060085490506106803382610d38565b6008600081548092919061069390612328565b919050555050565b6106ac6106a6610bf9565b82610d56565b6106eb576040517f08c379a00000000000000000000000000000000000000000000000000000000081526004016106e2906123e2565b60405180910390fd5b6106f6838383610deb565b505050565b61071683838360405180602001604052806000815250610963565b505050565b610723610cba565b806007908161073291906125ae565b5050565b6000600854905090565b60008061074c836110e4565b9050600073ffffffffffffffffffffffffffffffffffffffff168173ffffffffffffffffffffffffffffffffffffffff16036107bd576040517f08c379a00000000000000000000000000000000000000000000000000000000081526004016107b4906126cc565b60405180910390fd5b80915050919050565b60008073ffffffffffffffffffffffffffffffffffffffff168273ffffffffffffffffffffffffffffffffffffffff1603610836576040517f08c379a000000000000000000000000000000000000000000000000000000000815260040161082d9061275e565b60405180910390fd5b600360008373ffffffffffffffffffffffffffffffffffffffff1673ffffffffffffffffffffffffffffffffffffffff168152602001908152602001600020549050919050565b610885610cba565b61088f6000611121565b565b6000600660009054906101000a900473ffffffffffffffffffffffffffffffffffffffff16905090565b6060600180546108ca906121a4565b80601f01602080910402602001604051908101604052809291908181526020018280546108f6906121a4565b80156109435780601f1061091857610100808354040283529160200191610943565b820191906000526020600020905b81548152906001019060200180831161092657829003601f168201915b5050505050905090565b61095f610958610bf9565b83836111e7565b5050565b61097461096e610bf9565b83610d56565b6109b3576040517f08c379a00000000000000000000000000000000000000000000000000000000081526004016109aa906123e2565b60405180910390fd5b6109bf84848484611353565b50505050565b60606109d082610bae565b60006109da6113af565b905060008151116109fa5760405180602001604052806000815250610a25565b80610a0484611441565b604051602001610a159291906127ba565b6040516020818303038152906040525b915050919050565b6000600560008473ffffffffffffffffffffffffffffffffffffffff1673ffffffffffffffffffffffffffffffffffffffff16815260200190815260200160002060008373ffffffffffffffffffffffffffffffffffffffff1673ffffffffffffffffffffffffffffffffffffffff16815260200190815260200160002060009054906101000a900460ff16905092915050565b610ac9610cba565b600073ffffffffffffffffffffffffffffffffffffffff168173ffffffffffffffffffffffffffffffffffffffff1603610b38576040517f08c379a0000000000000000000000000000000000000000000000000000000008152600401610b2f90612850565b60405180910390fd5b610b4181611121565b50565b60007f01ffc9a7000000000000000000000000000000000000000000000000000000007bffffffffffffffffffffffffffffffffffffffffffffffffffffffff1916827bffffffffffffffffffffffffffffffffffffffffffffffffffffffff1916149050919050565b610bb78161150f565b610bf6576040517f08c379a0000000000000000000000000000000000000000000000000000000008152600401610bed906126cc565b60405180910390fd5b50565b600033905090565b816004600083815260200190815260200160002060006101000a81548173ffffffffffffffffffffffffffffffffffffffff021916908373ffffffffffffffffffffffffffffffffffffffff160217905550808273ffffffffffffffffffffffffffffffffffffffff16610c7483610740565b73ffffffffffffffffffffffffffffffffffffffff167f8c5be1e5ebec7d5bd14f71427d1e84f3dd0314c0f7b2291e5b200ac8c7c3b92560405160405180910390a45050565b610cc2610bf9565b73ffffffffffffffffffffffffffffffffffffffff16610ce0610891565b73ffffffffffffffffffffffffffffffffffffffff1614610d36576040517f08c379a0000000000000000000000000000000000000000000000000000000008152600401610d2d906128bc565b60405180910390fd5b565b610d52828260405180602001604052806000815250611550565b5050565b600080610d6283610740565b90508073ffffffffffffffffffffffffffffffffffffffff168473ffffffffffffffffffffffffffffffffffffffff161480610da45750610da38185610a2d565b5b80610de257508373ffffffffffffffffffffffffffffffffffffffff16610dca8461050a565b73ffffffffffffffffffffffffffffffffffffffff16145b91505092915050565b8273ffffffffffffffffffffffffffffffffffffffff16610e0b82610740565b73ffffffffffffffffffffffffffffffffffffffff1614610e61576040517f08c379a0000000000000000000000000000000000000000000000000000000008152600401610e589061294e565b60405180910390fd5b600073ffffffffffffffffffffffffffffffffffffffff168273ffffffffffffffffffffffffffffffffffffffff1603610ed0576040517f08c379a0000000000000000000000000000000000000000000000000000000008152600401610ec7906129e0565b60405180910390fd5b610edd83838360016115ab565b8273ffffffffffffffffffffffffffffffffffffffff16610efd82610740565b73ffffffffffffffffffffffffffffffffffffffff1614610f53576040517f08c379a0000000000000000000000000000000000000000000000000000000008152600401610f4a9061294e565b60405180910390fd5b6004600082815260200190815260200160002060006101000a81549073ffffffffffffffffffffffffffffffffffffffff02191690556001600360008573ffffffffffffffffffffffffffffffffffffffff1673ffffffffffffffffffffffffffffffffffffffff168152602001908152602001600020600082825403925050819055506001600360008473ffffffffffffffffffffffffffffffffffffffff1673ffffffffffffffffffffffffffffffffffffffff16815260200190815260200160002060008282540192505081905550816002600083815260200190815260200160002060006101000a81548173ffffffffffffffffffffffffffffffffffffffff021916908373ffffffffffffffffffffffffffffffffffffffff160217905550808273ffffffffffffffffffffffffffffffffffffffff168473ffffffffffffffffffffffffffffffffffffffff167fddf252ad1be2c89b69c2b068fc378daa952ba7f163c4a11628f55a4df523b3ef60405160405180910390a46110df83838360016115b1565b505050565b60006002600083815260200190815260200160002060009054906101000a900473ffffffffffffffffffffffffffffffffffffffff169050919050565b6000600660009054906101000a900473ffffffffffffffffffffffffffffffffffffffff16905081600660006101000a81548173ffffffffffffffffffffffffffffffffffffffff021916908373ffffffffffffffffffffffffffffffffffffffff1602179055508173ffffffffffffffffffffffffffffffffffffffff168173ffffffffffffffffffffffffffffffffffffffff167f8be0079c531659141344cd1fd0a4f28419497f9722a3daafe3b4186f6b6457e060405160405180910390a35050565b8173ffffffffffffffffffffffffffffffffffffffff168373ffffffffffffffffffffffffffffffffffffffff1603611255576040517f08c379a000000000000000000000000000000000000000000000000000000000815260040161124c90612a4c565b60405180910390fd5b80600560008573ffffffffffffffffffffffffffffffffffffffff1673ffffffffffffffffffffffffffffffffffffffff16815260200190815260200160002060008473ffffffffffffffffffffffffffffffffffffffff1673ffffffffffffffffffffffffffffffffffffffff16815260200190815260200160002060006101000a81548160ff0219169083151502179055508173ffffffffffffffffffffffffffffffffffffffff168373ffffffffffffffffffffffffffffffffffffffff167f17307eab39ab6107e8899845ad3d59bd9653f200f220920489ca2b5937696c31836040516113469190611b85565b60405180910390a3505050565b61135e848484610deb565b61136a848484846115b7565b6113a9576040517f08c379a00000000000000000000000000000000000000000000000000000000081526004016113a090612ade565b60405180910390fd5b50505050565b6060600780546113be906121a4565b80601f01602080910402602001604051908101604052809291908181526020018280546113ea906121a4565b80156114375780601f1061140c57610100808354040283529160200191611437565b820191906000526020600020905b81548152906001019060200180831161141a57829003601f168201915b5050505050905090565b6060600060016114508461173e565b01905060008167ffffffffffffffff81111561146f5761146e611dda565b5b6040519080825280601f01601f1916602001820160405280156114a15781602001600182028036833780820191505090505b509050600082602001820190505b600115611504578080600190039150507f3031323334353637383961626364656600000000000000000000000000000000600a86061a8153600a85816114f8576114f7612afe565b5b049450600085036114af575b819350505050919050565b60008073ffffffffffffffffffffffffffffffffffffffff16611531836110e4565b73ffffffffffffffffffffffffffffffffffffffff1614159050919050565b61155a8383611891565b61156760008484846115b7565b6115a6576040517f08c379a000000000000000000000000000000000000000000000000000000000815260040161159d90612ade565b60405180910390fd5b505050565b50505050565b50505050565b60006115d88473ffffffffffffffffffffffffffffffffffffffff16611aae565b15611731578373ffffffffffffffffffffffffffffffffffffffff1663150b7a02611601610bf9565b8786866040518563ffffffff1660e01b81526004016116239493929190612b82565b6020604051808303816000875af192505050801561165f57506040513d601f19601f8201168201806040525081019061165c9190612be3565b60015b6116e1573d806000811461168f576040519150601f19603f3d011682016040523d82523d6000602084013e611694565b606091505b5060008151036116d9576040517f08c379a00000000000000000000000000000000000000000000000000000000081526004016116d090612ade565b60405180910390fd5b805181602001fd5b63150b7a0260e01b7bffffffffffffffffffffffffffffffffffffffffffffffffffffffff1916817bffffffffffffffffffffffffffffffffffffffffffffffffffffffff191614915050611736565b600190505b949350505050565b600080600090507a184f03e93ff9f4daa797ed6e38ed64bf6a1f010000000000000000831061179c577a184f03e93ff9f4daa797ed6e38ed64bf6a1f010000000000000000838161179257611791612afe565b5b0492506040810190505b6d04ee2d6d415b85acef810000000083106117d9576d04ee2d6d415b85acef810000000083816117cf576117ce612afe565b5b0492506020810190505b662386f26fc10000831061180857662386f26fc1000083816117fe576117fd612afe565b5b0492506010810190505b6305f5e1008310611831576305f5e100838161182757611826612afe565b5b0492506008810190505b612710831061185657612710838161184c5761184b612afe565b5b0492506004810190505b60648310611879576064838161186f5761186e612afe565b5b0492506002810190505b600a8310611888576001810190505b80915050919050565b600073ffffffffffffffffffffffffffffffffffffffff168273ffffffffffffffffffffffffffffffffffffffff1603611900576040517f08c379a00000000000000000000000000000000000000000000000000000000081526004016118f790612c5c565b60405180910390fd5b6119098161150f565b15611949576040517f08c379a000000000000000000000000000000000000000000000000000000000815260040161194090612cc8565b60405180910390fd5b6119576000838360016115ab565b6119608161150f565b156119a0576040517f08c379a000000000000000000000000000000000000000000000000000000000815260040161199790612cc8565b60405180910390fd5b6001600360008473ffffffffffffffffffffffffffffffffffffffff1673ffffffffffffffffffffffffffffffffffffffff16815260200190815260200160002060008282540192505081905550816002600083815260200190815260200160002060006101000a81548173ffffffffffffffffffffffffffffffffffffffff021916908373ffffffffffffffffffffffffffffffffffffffff160217905550808273ffffffffffffffffffffffffffffffffffffffff16600073ffffffffffffffffffffffffffffffffffffffff167fddf252ad1be2c89b69c2b068fc378daa952ba7f163c4a11628f55a4df523b3ef60405160405180910390a4611aaa6000838360016115b1565b5050565b6000808273ffffffffffffffffffffffffffffffffffffffff163b119050919050565b6000604051905090565b600080fd5b600080fd5b60007fffffffff0000000000000000000000000000000000000000000000000000000082169050919050565b611b1a81611ae5565b8114611b2557600080fd5b50565b600081359050611b3781611b11565b92915050565b600060208284031215611b5357611b52611adb565b5b6000611b6184828501611b28565b91505092915050565b60008115159050919050565b611b7f81611b6a565b82525050565b6000602082019050611b9a6000830184611b76565b92915050565b600081519050919050565b600082825260208201905092915050565b60005b83811015611bda578082015181840152602081019050611bbf565b60008484015250505050565b6000601f19601f8301169050919050565b6000611c0282611ba0565b611c0c8185611bab565b9350611c1c818560208601611bbc565b611c2581611be6565b840191505092915050565b60006020820190508181036000830152611c4a8184611bf7565b905092915050565b6000819050919050565b611c6581611c52565b8114611c7057600080fd5b50565b600081359050611c8281611c5c565b92915050565b600060208284031215611c9e57611c9d611adb565b5b6000611cac84828501611c73565b91505092915050565b600073ffffffffffffffffffffffffffffffffffffffff82169050919050565b6000611ce082611cb5565b9050919050565b611cf081611cd5565b82525050565b6000602082019050611d0b6000830184611ce7565b92915050565b611d1a81611cd5565b8114611d2557600080fd5b50565b600081359050611d3781611d11565b92915050565b60008060408385031215611d5457611d53611adb565b5b6000611d6285828601611d28565b9250506020611d7385828601611c73565b9150509250929050565b600080600060608486031215611d9657611d95611adb565b5b6000611da486828701611d28565b9350506020611db586828701611d28565b9250506040611dc686828701611c73565b9150509250925092565b600080fd5b600080fd5b7f4e487b7100000000000000000000000000000000000000000000000000000000600052604160045260246000fd5b611e1282611be6565b810181811067ffffffffffffffff82111715611e3157611e30611dda565b5b80604052505050565b6000611e44611ad1565b9050611e508282611e09565b919050565b600067ffffffffffffffff821115611e7057611e6f611dda565b5b611e7982611be6565b9050602081019050919050565b82818337600083830152505050565b6000611ea8611ea384611e55565b611e3a565b905082815260208101848484011115611ec457611ec3611dd5565b5b611ecf848285611e86565b509392505050565b600082601f830112611eec57611eeb611dd0565b5b8135611efc848260208601611e95565b91505092915050565b600060208284031215611f1b57611f1a611adb565b5b600082013567ffffffffffffffff811115611f3957611f38611ae0565b5b611f4584828501611ed7565b91505092915050565b611f5781611c52565b82525050565b6000602082019050611f726000830184611f4e565b92915050565b600060208284031215611f8e57611f8d611adb565b5b6000611f9c84828501611d28565b91505092915050565b611fae81611b6a565b8114611fb957600080fd5b50565b600081359050611fcb81611fa5565b92915050565b60008060408385031215611fe857611fe7611adb565b5b6000611ff685828601611d28565b925050602061200785828601611fbc565b9150509250929050565b600067ffffffffffffffff82111561202c5761202b611dda565b5b61203582611be6565b9050602081019050919050565b600061205561205084612011565b611e3a565b90508281526020810184848401111561207157612070611dd5565b5b61207c848285611e86565b509392505050565b600082601f83011261209957612098611dd0565b5b81356120a9848260208601612042565b91505092915050565b600080600080608085870312156120cc576120cb611adb565b5b60006120da87828801611d28565b94505060206120eb87828801611d28565b93505060406120fc87828801611c73565b925050606085013567ffffffffffffffff81111561211d5761211c611ae0565b5b61212987828801612084565b91505092959194509250565b6000806040838503121561214c5761214b611adb565b5b600061215a85828601611d28565b925050602061216b85828601611d28565b9150509250929050565b7f4e487b7100000000000000000000000000000000000000000000000000000000600052602260045260246000fd5b600060028204905060018216806121bc57607f821691505b6020821081036121cf576121ce612175565b5b50919050565b7f4552433732313a20617070726f76616c20746f2063757272656e74206f776e6560008201527f7200000000000000000000000000000000000000000000000000000000000000602082015250565b6000612231602183611bab565b915061223c826121d5565b604082019050919050565b6000602082019050818103600083015261226081612224565b9050919050565b7f4552433732313a20617070726f76652063616c6c6572206973206e6f7420746f60008201527f6b656e206f776e6572206f7220617070726f76656420666f7220616c6c000000602082015250565b60006122c3603d83611bab565b91506122ce82612267565b604082019050919050565b600060208201905081810360008301526122f2816122b6565b9050919050565b7f4e487b7100000000000000000000000000000000000000000000000000000000600052601160045260246000fd5b600061233382611c52565b91507fffffffffffffffffffffffffffffffffffffffffffffffffffffffffffffffff8203612365576123646122f9565b5b600182019050919050565b7f4552433732313a2063616c6c6572206973206e6f7420746f6b656e206f776e6560008201527f72206f7220617070726f76656400000000000000000000000000000000000000602082015250565b60006123cc602d83611bab565b91506123d782612370565b604082019050919050565b600060208201905081810360008301526123fb816123bf565b9050919050565b60008190508160005260206000209050919050565b60006020601f8301049050919050565b600082821b905092915050565b6000600883026124647fffffffffffffffffffffffffffffffffffffffffffffffffffffffffffffffff82612427565b61246e8683612427565b95508019841693508086168417925050509392505050565b6000819050919050565b60006124ab6124a66124a184611c52565b612486565b611c52565b9050919050565b6000819050919050565b6124c583612490565b6124d96124d1826124b2565b848454612434565b825550505050565b600090565b6124ee6124e1565b6124f98184846124bc565b505050565b5b8181101561251d576125126000826124e6565b6001810190506124ff565b5050565b601f8211156125625761253381612402565b61253c84612417565b8101602085101561254b578190505b61255f61255785612417565b8301826124fe565b50505b505050565b600082821c905092915050565b600061258560001984600802612567565b1980831691505092915050565b600061259e8383612574565b9150826002028217905092915050565b6125b782611ba0565b67ffffffffffffffff8111156125d0576125cf611dda565b5b6125da82546121a4565b6125e5828285612521565b600060209050601f8311600181146126185760008415612606578287015190505b6126108582612592565b865550612678565b601f19841661262686612402565b60005b8281101561264e57848901518255600182019150602085019450602081019050612629565b8683101561266b5784890151612667601f891682612574565b8355505b6001600288020188555050505b505050505050565b7f4552433732313a20696e76616c696420746f6b656e2049440000000000000000600082015250565b60006126b6601883611bab565b91506126c182612680565b602082019050919050565b600060208201905081810360008301526126e5816126a9565b9050919050565b7f4552433732313a2061646472657373207a65726f206973206e6f74206120766160008201527f6c6964206f776e65720000000000000000000000000000000000000000000000602082015250565b6000612748602983611bab565b9150612753826126ec565b604082019050919050565b600060208201905081810360008301526127778161273b565b9050919050565b600081905092915050565b600061279482611ba0565b61279e818561277e565b93506127ae818560208601611bbc565b80840191505092915050565b60006127c68285612789565b91506127d28284612789565b91508190509392505050565b7f4f776e61626c653a206e6577206f776e657220697320746865207a65726f206160008201527f6464726573730000000000000000000000000000000000000000000000000000602082015250565b600061283a602683611bab565b9150612845826127de565b604082019050919050565b600060208201905081810360008301526128698161282d565b9050919050565b7f4f776e61626c653a2063616c6c6572206973206e6f7420746865206f776e6572600082015250565b60006128a6602083611bab565b91506128b182612870565b602082019050919050565b600060208201905081810360008301526128d581612899565b9050919050565b7f4552433732313a207472616e736665722066726f6d20696e636f72726563742060008201527f6f776e6572000000000000000000000000000000000000000000000000000000602082015250565b6000612938602583611bab565b9150612943826128dc565b604082019050919050565b600060208201905081810360008301526129678161292b565b9050919050565b7f4552433732313a207472616e7366657220746f20746865207a65726f2061646460008201527f7265737300000000000000000000000000000000000000000000000000000000602082015250565b60006129ca602483611bab565b91506129d58261296e565b604082019050919050565b600060208201905081810360008301526129f9816129bd565b9050919050565b7f4552433732313a20617070726f766520746f2063616c6c657200000000000000600082015250565b6000612a36601983611bab565b9150612a4182612a00565b602082019050919050565b60006020820190508181036000830152612a6581612a29565b9050919050565b7f4552433732313a207472616e7366657220746f206e6f6e20455243373231526560008201527f63656976657220696d706c656d656e7465720000000000000000000000000000602082015250565b6000612ac8603283611bab565b9150612ad382612a6c565b604082019050919050565b60006020820190508181036000830152612af781612abb565b9050919050565b7f4e487b7100000000000000000000000000000000000000000000000000000000600052601260045260246000fd5b600081519050919050565b600082825260208201905092915050565b6000612b5482612b2d565b612b5e8185612b38565b9350612b6e818560208601611bbc565b612b7781611be6565b840191505092915050565b6000608082019050612b976000830187611ce7565b612ba46020830186611ce7565b612bb16040830185611f4e565b8181036060830152612bc38184612b49565b905095945050505050565b600081519050612bdd81611b11565b92915050565b600060208284031215612bf957612bf8611adb565b5b6000612c0784828501612bce565b91505092915050565b7f4552433732313a206d696e7420746f20746865207a65726f2061646472657373600082015250565b6000612c46602083611bab565b9150612c5182612c10565b602082019050919050565b60006020820190508181036000830152612c7581612c39565b9050919050565b7f4552433732313a20746f6b656e20616c7265616479206d696e74656400000000600082015250565b6000612cb2601c83611bab565b9150612cbd82612c7c565b602082019050919050565b60006020820190508181036000830152612ce181612ca5565b905091905056fea2646970667358221220898273c20140debbed6e1d8b57e16d2fffbe4382b68745d4bf382d91db852ac664736f6c63430008140033",
  "linkReferences": {},
  "deployedLinkReferences": {}
}