{
  "_format": "hh-sol-artifact-1",
  "contractName": "NFT42",
  "sourceName": "code/NFT42.sol",
  "abi": [
    {
      "inputs": [],
      "stateMutability": "nonpayable",
      "type": "constructor"
    },
    {
      "anonymous": false,
      "inputs": [
        {
          "indexed": true,
          "internalType": "address",
          "name": "owner",
          "type": "address"
        },
        {
          "indexed": true,
          "internalType": "address",
          "name": "approved",
          "type": "address"
        },
        {
          "indexed": true,
          "internalType": "uint256",
          "name": "tokenId",
          "type": "uint256"
        }
      ],
      "name": "Approval",
      "type": "event"
    },
    {
      "anonymous": false,
      "inputs": [
        {
          "indexed": true,
          "internalType": "address",
          "name": "owner",
          "type": "address"
        },
        {
          "indexed": true,
          "internalType": "address",
          "name": "operator",
          "type": "address"
        },
        {
          "indexed": false,
          "internalType": "bool",
          "name": "approved",
          "type": "bool"
        }
      ],
      "name": "ApprovalForAll",
      "type": "event"
    },
    {
      "anonymous": false,
      "inputs": [
        {
          "indexed": false,
          "internalType": "uint256",
          "name": "_fromTokenId",
          "type": "uint256"
        },
        {
          "indexed": false,
          "internalType": "uint256",
          "name": "_toTokenId",
          "type": "uint256"
        }
      ],
      "name": "BatchMetadataUpdate",
      "type": "event"
    },
    {
      "anonymous": false,
      "inputs": [
        {
          "indexed": false,
          "internalType": "uint256",
          "name": "_tokenId",
          "type": "uint256"
        }
      ],
      "name": "MetadataUpdate",
      "type": "event"
    },
    {
      "anonymous": false,
      "inputs": [
        {
          "indexed": true,
          "internalType": "address",
          "name": "previousOwner",
          "type": "address"
        },
        {
          "indexed": true,
          "internalType": "address",
          "name": "newOwner",
          "type": "address"
        }
      ],
      "name": "OwnershipTransferred",
      "type": "event"
    },
    {
      "anonymous": false,
      "inputs": [
        {
          "indexed": true,
          "internalType": "address",
          "name": "from",
          "type": "address"
        },
        {
          "indexed": true,
          "internalType": "address",
          "name": "to",
          "type": "address"
        },
        {
          "indexed": true,
          "internalType": "uint256",
          "name": "tokenId",
          "type": "uint256"
        }
      ],
      "name": "Transfer",
      "type": "event"
    },
    {
      "inputs": [
        {
          "internalType": "address",
          "name": "to",
          "type": "address"
        },
        {
          "internalType": "uint256",
          "name": "tokenId",
          "type": "uint256"
        }
      ],
      "name": "approve",
      "outputs": [],
      "stateMutability": "nonpayable",
      "type": "function"
    },
    {
      "inputs": [
        {
          "internalType": "address",
          "name": "owner",
          "type": "address"
        }
      ],
      "name": "balanceOf",
      "outputs": [
        {
          "internalType": "uint256",
          "name": "",
          "type": "uint256"
        }
      ],
      "stateMutability": "view",
      "type": "function"
    },
    {
      "inputs": [
        {
          "internalType": "uint256",
          "name": "tokenId",
          "type": "uint256"
        }
      ],
      "name": "getApproved",
      "outputs": [
        {
          "internalType": "address",
          "name": "",
          "type": "address"
        }
      ],
      "stateMutability": "view",
      "type": "function"
    },
    {
      "inputs": [],
      "name": "getCurrentTokenId",
      "outputs": [
        {
          "internalType": "uint256",
          "name": "",
          "type": "uint256"
        }
      ],
      "stateMutability": "view",
      "type": "function"
    },
    {
      "inputs": [],
      "name": "getTokenURIs",
      "outputs": [
        {
          "internalType": "string[]",
          "name": "",
          "type": "string[]"
        }
      ],
      "stateMutability": "view",
      "type": "function"
    },
    {
      "inputs": [
        {
          "internalType": "address",
          "name": "owner",
          "type": "address"
        },
        {
          "internalType": "address",
          "name": "operator",
          "type": "address"
        }
      ],
      "name": "isApprovedForAll",
      "outputs": [
        {
          "internalType": "bool",
          "name": "",
          "type": "bool"
        }
      ],
      "stateMutability": "view",
      "type": "function"
    },
    {
      "inputs": [
        {
          "internalType": "string",
          "name": "tokenURI",
          "type": "string"
        }
      ],
      "name": "mint",
      "outputs": [],
      "stateMutability": "nonpayable",
      "type": "function"
    },
    {
      "inputs": [],
      "name": "name",
      "outputs": [
        {
          "internalType": "string",
          "name": "",
          "type": "string"
        }
      ],
      "stateMutability": "view",
      "type": "function"
    },
    {
      "inputs": [],
      "name": "owner",
      "outputs": [
        {
          "internalType": "address",
          "name": "",
          "type": "address"
        }
      ],
      "stateMutability": "view",
      "type": "function"
    },
    {
      "inputs": [
        {
          "internalType": "uint256",
          "name": "tokenId",
          "type": "uint256"
        }
      ],
      "name": "ownerOf",
      "outputs": [
        {
          "internalType": "address",
          "name": "",
          "type": "address"
        }
      ],
      "stateMutability": "view",
      "type": "function"
    },
    {
      "inputs": [],
      "name": "renounceOwnership",
      "outputs": [],
      "stateMutability": "nonpayable",
      "type": "function"
    },
    {
      "inputs": [
        {
          "internalType": "address",
          "name": "from",
          "type": "address"
        },
        {
          "internalType": "address",
          "name": "to",
          "type": "address"
        },
        {
          "internalType": "uint256",
          "name": "tokenId",
          "type": "uint256"
        }
      ],
      "name": "safeTransferFrom",
      "outputs": [],
      "stateMutability": "nonpayable",
      "type": "function"
    },
    {
      "inputs": [
        {
          "internalType": "address",
          "name": "from",
          "type": "address"
        },
        {
          "internalType": "address",
          "name": "to",
          "type": "address"
        },
        {
          "internalType": "uint256",
          "name": "tokenId",
          "type": "uint256"
        },
        {
          "internalType": "bytes",
          "name": "data",
          "type": "bytes"
        }
      ],
      "name": "safeTransferFrom",
      "outputs": [],
      "stateMutability": "nonpayable",
      "type": "function"
    },
    {
      "inputs": [
        {
          "internalType": "address",
          "name": "operator",
          "type": "address"
        },
        {
          "internalType": "bool",
          "name": "approved",
          "type": "bool"
        }
      ],
      "name": "setApprovalForAll",
      "outputs": [],
      "stateMutability": "nonpayable",
      "type": "function"
    },
    {
      "inputs": [
        {
          "internalType": "bytes4",
          "name": "interfaceId",
          "type": "bytes4"
        }
      ],
      "name": "supportsInterface",
      "outputs": [
        {
          "internalType": "bool",
          "name": "",
          "type": "bool"
        }
      ],
      "stateMutability": "view",
      "type": "function"
    },
    {
      "inputs": [],
      "name": "symbol",
      "outputs": [
        {
          "internalType": "string",
          "name": "",
          "type": "string"
        }
      ],
      "stateMutability": "view",
      "type": "function"
    },
    {
      "inputs": [
        {
          "internalType": "uint256",
          "name": "tokenId",
          "type": "uint256"
        }
      ],
      "name": "tokenURI",
      "outputs": [
        {
          "internalType": "string",
          "name": "",
          "type": "string"
        }
      ],
      "stateMutability": "view",
      "type": "function"
    },
    {
      "inputs": [
        {
          "internalType": "address",
          "name": "from",
          "type": "address"
        },
        {
          "internalType": "address",
          "name": "to",
          "type": "address"
        },
        {
          "internalType": "uint256",
          "name": "tokenId",
          "type": "uint256"
        }
      ],
      "name": "transferFrom",
      "outputs": [],
      "stateMutability": "nonpayable",
      "type": "function"
    },
    {
      "inputs": [
        {
          "internalType": "address",
          "name": "newOwner",
          "type": "address"
        }
      ],
      "name": "transferOwnership",
      "outputs": [],
      "stateMutability": "nonpayable",
      "type": "function"
    }
  ],
  "bytecode": "0x60806040523480156200001157600080fd5b506040518060400160405280600581526020017f4e465434320000000000000000000000000000000000000000000000000000008152506040518060400160405280600581526020017f4e4654343200000000000000000000000000000000000000000000000000000081525081600090816200008f919062000412565b508060019081620000a1919062000412565b505050620000c4620000b8620000ca60201b60201c565b620000d260201b60201c565b620004f9565b600033905090565b6000600760009054906101000a900473ffffffffffffffffffffffffffffffffffffffff16905081600760006101000a81548173ffffffffffffffffffffffffffffffffffffffff021916908373ffffffffffffffffffffffffffffffffffffffff1602179055508173ffffffffffffffffffffffffffffffffffffffff168173ffffffffffffffffffffffffffffffffffffffff167f8be0079c531659141344cd1fd0a4f28419497f9722a3daafe3b4186f6b6457e060405160405180910390a35050565b600081519050919050565b7f4e487b7100000000000000000000000000000000000000000000000000000000600052604160045260246000fd5b7f4e487b7100000000000000000000000000000000000000000000000000000000600052602260045260246000fd5b600060028204905060018216806200021a57607f821691505b60208210810362000230576200022f620001d2565b5b50919050565b60008190508160005260206000209050919050565b60006020601f8301049050919050565b600082821b905092915050565b6000600883026200029a7fffffffffffffffffffffffffffffffffffffffffffffffffffffffffffffffff826200025b565b620002a686836200025b565b95508019841693508086168417925050509392505050565b6000819050919050565b6000819050919050565b6000620002f3620002ed620002e784620002be565b620002c8565b620002be565b9050919050565b6000819050919050565b6200030f83620002d2565b620003276200031e82620002fa565b84845462000268565b825550505050565b600090565b6200033e6200032f565b6200034b81848462000304565b505050565b5b8181101562000373576200036760008262000334565b60018101905062000351565b5050565b601f821115620003c2576200038c8162000236565b62000397846200024b565b81016020851015620003a7578190505b620003bf620003b6856200024b565b83018262000350565b50505b505050565b600082821c905092915050565b6000620003e760001984600802620003c7565b1980831691505092915050565b6000620004028383620003d4565b9150826002028217905092915050565b6200041d8262000198565b67ffffffffffffffff811115620004395762000438620001a3565b5b62000445825462000201565b6200045282828562000377565b600060209050601f8311600181146200048a576000841562000475578287015190505b620004818582620003f4565b865550620004f1565b601f1984166200049a8662000236565b60005b82811015620004c4578489015182556001820191506020850194506020810190506200049d565b86831015620004e45784890151620004e0601f891682620003d4565b8355505b6001600288020188555050505b505050505050565b61315280620005096000396000f3fe608060405234801561001057600080fd5b50600436106101215760003560e01c8063715018a6116100ad578063b88d4fde11610071578063b88d4fde146102f6578063c87b56dd14610312578063d85d3d2714610342578063e985e9c51461035e578063f2fde38b1461038e57610121565b8063715018a6146102765780638da5cb5b1461028057806395d89b411461029e578063a22cb465146102bc578063b6d3564b146102d857610121565b806323b872dd116100f457806323b872dd146101c057806342842e0e146101dc57806356189236146101f85780636352211e1461021657806370a082311461024657610121565b806301ffc9a71461012657806306fdde0314610156578063081812fc14610174578063095ea7b3146101a4575b600080fd5b610140600480360381019061013b9190611d82565b6103aa565b60405161014d9190611dca565b60405180910390f35b61015e61040b565b60405161016b9190611e75565b60405180910390f35b61018e60048036038101906101899190611ecd565b61049d565b60405161019b9190611f3b565b60405180910390f35b6101be60048036038101906101b99190611f82565b6104e3565b005b6101da60048036038101906101d59190611fc2565b6105fa565b005b6101f660048036038101906101f19190611fc2565b61065a565b005b61020061067a565b60405161020d9190612024565b60405180910390f35b610230600480360381019061022b9190611ecd565b610684565b60405161023d9190611f3b565b60405180910390f35b610260600480360381019061025b919061203f565b61070a565b60405161026d9190612024565b60405180910390f35b61027e6107c1565b005b6102886107d5565b6040516102959190611f3b565b60405180910390f35b6102a66107ff565b6040516102b39190611e75565b60405180910390f35b6102d660048036038101906102d19190612098565b610891565b005b6102e06108a7565b6040516102ed91906121e4565b60405180910390f35b610310600480360381019061030b919061233b565b61094c565b005b61032c60048036038101906103279190611ecd565b6109ae565b6040516103399190611e75565b60405180910390f35b61035c6004803603810190610357919061245f565b610ac0565b005b610378600480360381019061037391906124a8565b610aff565b6040516103859190611dca565b60405180910390f35b6103a860048036038101906103a3919061203f565b610b93565b005b6000634906490660e01b7bffffffffffffffffffffffffffffffffffffffffffffffffffffffff1916827bffffffffffffffffffffffffffffffffffffffffffffffffffffffff19161480610404575061040382610c16565b5b9050919050565b60606000805461041a90612517565b80601f016020809104026020016040519081016040528092919081815260200182805461044690612517565b80156104935780601f1061046857610100808354040283529160200191610493565b820191906000526020600020905b81548152906001019060200180831161047657829003601f168201915b5050505050905090565b60006104a882610cf8565b6004600083815260200190815260200160002060009054906101000a900473ffffffffffffffffffffffffffffffffffffffff169050919050565b60006104ee82610684565b90508073ffffffffffffffffffffffffffffffffffffffff168373ffffffffffffffffffffffffffffffffffffffff160361055e576040517f08c379a0000000000000000000000000000000000000000000000000000000008152600401610555906125ba565b60405180910390fd5b8073ffffffffffffffffffffffffffffffffffffffff1661057d610d43565b73ffffffffffffffffffffffffffffffffffffffff1614806105ac57506105ab816105a6610d43565b610aff565b5b6105eb576040517f08c379a00000000000000000000000000000000000000000000000000000000081526004016105e29061264c565b60405180910390fd5b6105f58383610d4b565b505050565b61060b610605610d43565b82610e04565b61064a576040517f08c379a0000000000000000000000000000000000000000000000000000000008152600401610641906126de565b60405180910390fd5b610655838383610e99565b505050565b6106758383836040518060200160405280600081525061094c565b505050565b6000600854905090565b60008061069083611192565b9050600073ffffffffffffffffffffffffffffffffffffffff168173ffffffffffffffffffffffffffffffffffffffff1603610701576040517f08c379a00000000000000000000000000000000000000000000000000000000081526004016106f89061274a565b60405180910390fd5b80915050919050565b60008073ffffffffffffffffffffffffffffffffffffffff168273ffffffffffffffffffffffffffffffffffffffff160361077a576040517f08c379a0000000000000000000000000000000000000000000000000000000008152600401610771906127dc565b60405180910390fd5b600360008373ffffffffffffffffffffffffffffffffffffffff1673ffffffffffffffffffffffffffffffffffffffff168152602001908152602001600020549050919050565b6107c96111cf565b6107d3600061124d565b565b6000600760009054906101000a900473ffffffffffffffffffffffffffffffffffffffff16905090565b60606001805461080e90612517565b80601f016020809104026020016040519081016040528092919081815260200182805461083a90612517565b80156108875780601f1061085c57610100808354040283529160200191610887565b820191906000526020600020905b81548152906001019060200180831161086a57829003601f168201915b5050505050905090565b6108a361089c610d43565b8383611313565b5050565b6060600060085467ffffffffffffffff8111156108c7576108c6612210565b5b6040519080825280602002602001820160405280156108fa57816020015b60608152602001906001900390816108e55790505b50905060005b60085481101561094457610913816109ae565b828281518110610926576109256127fc565b5b6020026020010181905250808061093c9061285a565b915050610900565b508091505090565b61095d610957610d43565b83610e04565b61099c576040517f08c379a0000000000000000000000000000000000000000000000000000000008152600401610993906126de565b60405180910390fd5b6109a88484848461147f565b50505050565b60606109b982610cf8565b60006006600084815260200190815260200160002080546109d990612517565b80601f0160208091040260200160405190810160405280929190818152602001828054610a0590612517565b8015610a525780601f10610a2757610100808354040283529160200191610a52565b820191906000526020600020905b815481529060010190602001808311610a3557829003601f168201915b505050505090506000610a636114db565b90506000815103610a78578192505050610abb565b600082511115610aad578082604051602001610a959291906128de565b60405160208183030381529060405292505050610abb565b610ab6846114f2565b925050505b919050565b610ac86111cf565b60006008549050610ad9338261155a565b610ae38183611578565b60086000815480929190610af69061285a565b91905055505050565b6000600560008473ffffffffffffffffffffffffffffffffffffffff1673ffffffffffffffffffffffffffffffffffffffff16815260200190815260200160002060008373ffffffffffffffffffffffffffffffffffffffff1673ffffffffffffffffffffffffffffffffffffffff16815260200190815260200160002060009054906101000a900460ff16905092915050565b610b9b6111cf565b600073ffffffffffffffffffffffffffffffffffffffff168173ffffffffffffffffffffffffffffffffffffffff1603610c0a576040517f08c379a0000000000000000000000000000000000000000000000000000000008152600401610c0190612974565b60405180910390fd5b610c138161124d565b50565b60007f80ac58cd000000000000000000000000000000000000000000000000000000007bffffffffffffffffffffffffffffffffffffffffffffffffffffffff1916827bffffffffffffffffffffffffffffffffffffffffffffffffffffffff19161480610ce157507f5b5e139f000000000000000000000000000000000000000000000000000000007bffffffffffffffffffffffffffffffffffffffffffffffffffffffff1916827bffffffffffffffffffffffffffffffffffffffffffffffffffffffff1916145b80610cf15750610cf08261161c565b5b9050919050565b610d0181611686565b610d40576040517f08c379a0000000000000000000000000000000000000000000000000000000008152600401610d379061274a565b60405180910390fd5b50565b600033905090565b816004600083815260200190815260200160002060006101000a81548173ffffffffffffffffffffffffffffffffffffffff021916908373ffffffffffffffffffffffffffffffffffffffff160217905550808273ffffffffffffffffffffffffffffffffffffffff16610dbe83610684565b73ffffffffffffffffffffffffffffffffffffffff167f8c5be1e5ebec7d5bd14f71427d1e84f3dd0314c0f7b2291e5b200ac8c7c3b92560405160405180910390a45050565b600080610e1083610684565b90508073ffffffffffffffffffffffffffffffffffffffff168473ffffffffffffffffffffffffffffffffffffffff161480610e525750610e518185610aff565b5b80610e9057508373ffffffffffffffffffffffffffffffffffffffff16610e788461049d565b73ffffffffffffffffffffffffffffffffffffffff16145b91505092915050565b8273ffffffffffffffffffffffffffffffffffffffff16610eb982610684565b73ffffffffffffffffffffffffffffffffffffffff1614610f0f576040517f08c379a0000000000000000000000000000000000000000000000000000000008152600401610f0690612a06565b60405180910390fd5b600073ffffffffffffffffffffffffffffffffffffffff168273ffffffffffffffffffffffffffffffffffffffff1603610f7e576040517f08c379a0000000000000000000000000000000000000000000000000000000008152600401610f7590612a98565b60405180910390fd5b610f8b83838360016116c7565b8273ffffffffffffffffffffffffffffffffffffffff16610fab82610684565b73ffffffffffffffffffffffffffffffffffffffff1614611001576040517f08c379a0000000000000000000000000000000000000000000000000000000008152600401610ff890612a06565b60405180910390fd5b6004600082815260200190815260200160002060006101000a81549073ffffffffffffffffffffffffffffffffffffffff02191690556001600360008573ffffffffffffffffffffffffffffffffffffffff1673ffffffffffffffffffffffffffffffffffffffff168152602001908152602001600020600082825403925050819055506001600360008473ffffffffffffffffffffffffffffffffffffffff1673ffffffffffffffffffffffffffffffffffffffff16815260200190815260200160002060008282540192505081905550816002600083815260200190815260200160002060006101000a81548173ffffffffffffffffffffffffffffffffffffffff021916908373ffffffffffffffffffffffffffffffffffffffff160217905550808273ffffffffffffffffffffffffffffffffffffffff168473ffffffffffffffffffffffffffffffffffffffff167fddf252ad1be2c89b69c2b068fc378daa952ba7f163c4a11628f55a4df523b3ef60405160405180910390a461118d83838360016116cd565b505050565b60006002600083815260200190815260200160002060009054906101000a900473ffffffffffffffffffffffffffffffffffffffff169050919050565b6111d7610d43565b73ffffffffffffffffffffffffffffffffffffffff166111f56107d5565b73ffffffffffffffffffffffffffffffffffffffff161461124b576040517f08c379a000000000000000000000000000000000000000000000000000000000815260040161124290612b04565b60405180910390fd5b565b6000600760009054906101000a900473ffffffffffffffffffffffffffffffffffffffff16905081600760006101000a81548173ffffffffffffffffffffffffffffffffffffffff021916908373ffffffffffffffffffffffffffffffffffffffff1602179055508173ffffffffffffffffffffffffffffffffffffffff168173ffffffffffffffffffffffffffffffffffffffff167f8be0079c531659141344cd1fd0a4f28419497f9722a3daafe3b4186f6b6457e060405160405180910390a35050565b8173ffffffffffffffffffffffffffffffffffffffff168373ffffffffffffffffffffffffffffffffffffffff1603611381576040517f08c379a000000000000000000000000000000000000000000000000000000000815260040161137890612b70565b60405180910390fd5b80600560008573ffffffffffffffffffffffffffffffffffffffff1673ffffffffffffffffffffffffffffffffffffffff16815260200190815260200160002060008473ffffffffffffffffffffffffffffffffffffffff1673ffffffffffffffffffffffffffffffffffffffff16815260200190815260200160002060006101000a81548160ff0219169083151502179055508173ffffffffffffffffffffffffffffffffffffffff168373ffffffffffffffffffffffffffffffffffffffff167f17307eab39ab6107e8899845ad3d59bd9653f200f220920489ca2b5937696c31836040516114729190611dca565b60405180910390a3505050565b61148a848484610e99565b611496848484846116d3565b6114d5576040517f08c379a00000000000000000000000000000000000000000000000000000000081526004016114cc90612c02565b60405180910390fd5b50505050565b606060405180602001604052806000815250905090565b60606114fd82610cf8565b60006115076114db565b905060008151116115275760405180602001604052806000815250611552565b806115318461185a565b6040516020016115429291906128de565b6040516020818303038152906040525b915050919050565b611574828260405180602001604052806000815250611928565b5050565b61158182611686565b6115c0576040517f08c379a00000000000000000000000000000000000000000000000000000000081526004016115b790612c94565b60405180910390fd5b806006600084815260200190815260200160002090816115e09190612e60565b507ff8e1a15aba9398e019f0b49df1a4fde98ee17ae345cb5f6b5e2c27f5033e8ce7826040516116109190612024565b60405180910390a15050565b60007f01ffc9a7000000000000000000000000000000000000000000000000000000007bffffffffffffffffffffffffffffffffffffffffffffffffffffffff1916827bffffffffffffffffffffffffffffffffffffffffffffffffffffffff1916149050919050565b60008073ffffffffffffffffffffffffffffffffffffffff166116a883611192565b73ffffffffffffffffffffffffffffffffffffffff1614159050919050565b50505050565b50505050565b60006116f48473ffffffffffffffffffffffffffffffffffffffff16611983565b1561184d578373ffffffffffffffffffffffffffffffffffffffff1663150b7a0261171d610d43565b8786866040518563ffffffff1660e01b815260040161173f9493929190612f87565b6020604051808303816000875af192505050801561177b57506040513d601f19601f820116820180604052508101906117789190612fe8565b60015b6117fd573d80600081146117ab576040519150601f19603f3d011682016040523d82523d6000602084013e6117b0565b606091505b5060008151036117f5576040517f08c379a00000000000000000000000000000000000000000000000000000000081526004016117ec90612c02565b60405180910390fd5b805181602001fd5b63150b7a0260e01b7bffffffffffffffffffffffffffffffffffffffffffffffffffffffff1916817bffffffffffffffffffffffffffffffffffffffffffffffffffffffff191614915050611852565b600190505b949350505050565b606060006001611869846119a6565b01905060008167ffffffffffffffff81111561188857611887612210565b5b6040519080825280601f01601f1916602001820160405280156118ba5781602001600182028036833780820191505090505b509050600082602001820190505b60011561191d578080600190039150507f3031323334353637383961626364656600000000000000000000000000000000600a86061a8153600a858161191157611910613015565b5b049450600085036118c8575b819350505050919050565b6119328383611af9565b61193f60008484846116d3565b61197e576040517f08c379a000000000000000000000000000000000000000000000000000000000815260040161197590612c02565b60405180910390fd5b505050565b6000808273ffffffffffffffffffffffffffffffffffffffff163b119050919050565b600080600090507a184f03e93ff9f4daa797ed6e38ed64bf6a1f0100000000000000008310611a04577a184f03e93ff9f4daa797ed6e38ed64bf6a1f01000000000000000083816119fa576119f9613015565b5b0492506040810190505b6d04ee2d6d415b85acef81000000008310611a41576d04ee2d6d415b85acef81000000008381611a3757611a36613015565b5b0492506020810190505b662386f26fc100008310611a7057662386f26fc100008381611a6657611a65613015565b5b0492506010810190505b6305f5e1008310611a99576305f5e1008381611a8f57611a8e613015565b5b0492506008810190505b6127108310611abe576127108381611ab457611ab3613015565b5b0492506004810190505b60648310611ae15760648381611ad757611ad6613015565b5b0492506002810190505b600a8310611af0576001810190505b80915050919050565b600073ffffffffffffffffffffffffffffffffffffffff168273ffffffffffffffffffffffffffffffffffffffff1603611b68576040517f08c379a0000000000000000000000000000000000000000000000000000000008152600401611b5f90613090565b60405180910390fd5b611b7181611686565b15611bb1576040517f08c379a0000000000000000000000000000000000000000000000000000000008152600401611ba8906130fc565b60405180910390fd5b611bbf6000838360016116c7565b611bc881611686565b15611c08576040517f08c379a0000000000000000000000000000000000000000000000000000000008152600401611bff906130fc565b60405180910390fd5b6001600360008473ffffffffffffffffffffffffffffffffffffffff1673ffffffffffffffffffffffffffffffffffffffff16815260200190815260200160002060008282540192505081905550816002600083815260200190815260200160002060006101000a81548173ffffffffffffffffffffffffffffffffffffffff021916908373ffffffffffffffffffffffffffffffffffffffff160217905550808273ffffffffffffffffffffffffffffffffffffffff16600073ffffffffffffffffffffffffffffffffffffffff167fddf252ad1be2c89b69c2b068fc378daa952ba7f163c4a11628f55a4df523b3ef60405160405180910390a4611d126000838360016116cd565b5050565b6000604051905090565b600080fd5b600080fd5b60007fffffffff0000000000000000000000000000000000000000000000000000000082169050919050565b611d5f81611d2a565b8114611d6a57600080fd5b50565b600081359050611d7c81611d56565b92915050565b600060208284031215611d9857611d97611d20565b5b6000611da684828501611d6d565b91505092915050565b60008115159050919050565b611dc481611daf565b82525050565b6000602082019050611ddf6000830184611dbb565b92915050565b600081519050919050565b600082825260208201905092915050565b60005b83811015611e1f578082015181840152602081019050611e04565b60008484015250505050565b6000601f19601f8301169050919050565b6000611e4782611de5565b611e518185611df0565b9350611e61818560208601611e01565b611e6a81611e2b565b840191505092915050565b60006020820190508181036000830152611e8f8184611e3c565b905092915050565b6000819050919050565b611eaa81611e97565b8114611eb557600080fd5b50565b600081359050611ec781611ea1565b92915050565b600060208284031215611ee357611ee2611d20565b5b6000611ef184828501611eb8565b91505092915050565b600073ffffffffffffffffffffffffffffffffffffffff82169050919050565b6000611f2582611efa565b9050919050565b611f3581611f1a565b82525050565b6000602082019050611f506000830184611f2c565b92915050565b611f5f81611f1a565b8114611f6a57600080fd5b50565b600081359050611f7c81611f56565b92915050565b60008060408385031215611f9957611f98611d20565b5b6000611fa785828601611f6d565b9250506020611fb885828601611eb8565b9150509250929050565b600080600060608486031215611fdb57611fda611d20565b5b6000611fe986828701611f6d565b9350506020611ffa86828701611f6d565b925050604061200b86828701611eb8565b9150509250925092565b61201e81611e97565b82525050565b60006020820190506120396000830184612015565b92915050565b60006020828403121561205557612054611d20565b5b600061206384828501611f6d565b91505092915050565b61207581611daf565b811461208057600080fd5b50565b6000813590506120928161206c565b92915050565b600080604083850312156120af576120ae611d20565b5b60006120bd85828601611f6d565b92505060206120ce85828601612083565b9150509250929050565b600081519050919050565b600082825260208201905092915050565b6000819050602082019050919050565b600082825260208201905092915050565b600061212082611de5565b61212a8185612104565b935061213a818560208601611e01565b61214381611e2b565b840191505092915050565b600061215a8383612115565b905092915050565b6000602082019050919050565b600061217a826120d8565b61218481856120e3565b935083602082028501612196856120f4565b8060005b858110156121d257848403895281516121b3858261214e565b94506121be83612162565b925060208a0199505060018101905061219a565b50829750879550505050505092915050565b600060208201905081810360008301526121fe818461216f565b905092915050565b600080fd5b600080fd5b7f4e487b7100000000000000000000000000000000000000000000000000000000600052604160045260246000fd5b61224882611e2b565b810181811067ffffffffffffffff8211171561226757612266612210565b5b80604052505050565b600061227a611d16565b9050612286828261223f565b919050565b600067ffffffffffffffff8211156122a6576122a5612210565b5b6122af82611e2b565b9050602081019050919050565b82818337600083830152505050565b60006122de6122d98461228b565b612270565b9050828152602081018484840111156122fa576122f961220b565b5b6123058482856122bc565b509392505050565b600082601f83011261232257612321612206565b5b81356123328482602086016122cb565b91505092915050565b6000806000806080858703121561235557612354611d20565b5b600061236387828801611f6d565b945050602061237487828801611f6d565b935050604061238587828801611eb8565b925050606085013567ffffffffffffffff8111156123a6576123a5611d25565b5b6123b28782880161230d565b91505092959194509250565b600067ffffffffffffffff8211156123d9576123d8612210565b5b6123e282611e2b565b9050602081019050919050565b60006124026123fd846123be565b612270565b90508281526020810184848401111561241e5761241d61220b565b5b6124298482856122bc565b509392505050565b600082601f83011261244657612445612206565b5b81356124568482602086016123ef565b91505092915050565b60006020828403121561247557612474611d20565b5b600082013567ffffffffffffffff81111561249357612492611d25565b5b61249f84828501612431565b91505092915050565b600080604083850312156124bf576124be611d20565b5b60006124cd85828601611f6d565b92505060206124de85828601611f6d565b9150509250929050565b7f4e487b7100000000000000000000000000000000000000000000000000000000600052602260045260246000fd5b6000600282049050600182168061252f57607f821691505b602082108103612542576125416124e8565b5b50919050565b7f4552433732313a20617070726f76616c20746f2063757272656e74206f776e6560008201527f7200000000000000000000000000000000000000000000000000000000000000602082015250565b60006125a4602183611df0565b91506125af82612548565b604082019050919050565b600060208201905081810360008301526125d381612597565b9050919050565b7f4552433732313a20617070726f76652063616c6c6572206973206e6f7420746f60008201527f6b656e206f776e6572206f7220617070726f76656420666f7220616c6c000000602082015250565b6000612636603d83611df0565b9150612641826125da565b604082019050919050565b6000602082019050818103600083015261266581612629565b9050919050565b7f4552433732313a2063616c6c6572206973206e6f7420746f6b656e206f776e6560008201527f72206f7220617070726f76656400000000000000000000000000000000000000602082015250565b60006126c8602d83611df0565b91506126d38261266c565b604082019050919050565b600060208201905081810360008301526126f7816126bb565b9050919050565b7f4552433732313a20696e76616c696420746f6b656e2049440000000000000000600082015250565b6000612734601883611df0565b915061273f826126fe565b602082019050919050565b6000602082019050818103600083015261276381612727565b9050919050565b7f4552433732313a2061646472657373207a65726f206973206e6f74206120766160008201527f6c6964206f776e65720000000000000000000000000000000000000000000000602082015250565b60006127c6602983611df0565b91506127d18261276a565b604082019050919050565b600060208201905081810360008301526127f5816127b9565b9050919050565b7f4e487b7100000000000000000000000000000000000000000000000000000000600052603260045260246000fd5b7f4e487b7100000000000000000000000000000000000000000000000000000000600052601160045260246000fd5b600061286582611e97565b91507fffffffffffffffffffffffffffffffffffffffffffffffffffffffffffffffff82036128975761289661282b565b5b600182019050919050565b600081905092915050565b60006128b882611de5565b6128c281856128a2565b93506128d2818560208601611e01565b80840191505092915050565b60006128ea82856128ad565b91506128f682846128ad565b91508190509392505050565b7f4f776e61626c653a206e6577206f776e657220697320746865207a65726f206160008201527f6464726573730000000000000000000000000000000000000000000000000000602082015250565b600061295e602683611df0565b915061296982612902565b604082019050919050565b6000602082019050818103600083015261298d81612951565b9050919050565b7f4552433732313a207472616e736665722066726f6d20696e636f72726563742060008201527f6f776e6572000000000000000000000000000000000000000000000000000000602082015250565b60006129f0602583611df0565b91506129fb82612994565b604082019050919050565b60006020820190508181036000830152612a1f816129e3565b9050919050565b7f4552433732313a207472616e7366657220746f20746865207a65726f2061646460008201527f7265737300000000000000000000000000000000000000000000000000000000602082015250565b6000612a82602483611df0565b9150612a8d82612a26565b604082019050919050565b60006020820190508181036000830152612ab181612a75565b9050919050565b7f4f776e61626c653a2063616c6c6572206973206e6f7420746865206f776e6572600082015250565b6000612aee602083611df0565b9150612af982612ab8565b602082019050919050565b60006020820190508181036000830152612b1d81612ae1565b9050919050565b7f4552433732313a20617070726f766520746f2063616c6c657200000000000000600082015250565b6000612b5a601983611df0565b9150612b6582612b24565b602082019050919050565b60006020820190508181036000830152612b8981612b4d565b9050919050565b7f4552433732313a207472616e7366657220746f206e6f6e20455243373231526560008201527f63656976657220696d706c656d656e7465720000000000000000000000000000602082015250565b6000612bec603283611df0565b9150612bf782612b90565b604082019050919050565b60006020820190508181036000830152612c1b81612bdf565b9050919050565b7f45524337323155524953746f726167653a2055524920736574206f66206e6f6e60008201527f6578697374656e7420746f6b656e000000000000000000000000000000000000602082015250565b6000612c7e602e83611df0565b9150612c8982612c22565b604082019050919050565b60006020820190508181036000830152612cad81612c71565b9050919050565b60008190508160005260206000209050919050565b60006020601f8301049050919050565b600082821b905092915050565b600060088302612d167fffffffffffffffffffffffffffffffffffffffffffffffffffffffffffffffff82612cd9565b612d208683612cd9565b95508019841693508086168417925050509392505050565b6000819050919050565b6000612d5d612d58612d5384611e97565b612d38565b611e97565b9050919050565b6000819050919050565b612d7783612d42565b612d8b612d8382612d64565b848454612ce6565b825550505050565b600090565b612da0612d93565b612dab818484612d6e565b505050565b5b81811015612dcf57612dc4600082612d98565b600181019050612db1565b5050565b601f821115612e1457612de581612cb4565b612dee84612cc9565b81016020851015612dfd578190505b612e11612e0985612cc9565b830182612db0565b50505b505050565b600082821c905092915050565b6000612e3760001984600802612e19565b1980831691505092915050565b6000612e508383612e26565b9150826002028217905092915050565b612e6982611de5565b67ffffffffffffffff811115612e8257612e81612210565b5b612e8c8254612517565b612e97828285612dd3565b600060209050601f831160018114612eca5760008415612eb8578287015190505b612ec28582612e44565b865550612f2a565b601f198416612ed886612cb4565b60005b82811015612f0057848901518255600182019150602085019450602081019050612edb565b86831015612f1d5784890151612f19601f891682612e26565b8355505b6001600288020188555050505b505050505050565b600081519050919050565b600082825260208201905092915050565b6000612f5982612f32565b612f638185612f3d565b9350612f73818560208601611e01565b612f7c81611e2b565b840191505092915050565b6000608082019050612f9c6000830187611f2c565b612fa96020830186611f2c565b612fb66040830185612015565b8181036060830152612fc88184612f4e565b905095945050505050565b600081519050612fe281611d56565b92915050565b600060208284031215612ffe57612ffd611d20565b5b600061300c84828501612fd3565b91505092915050565b7f4e487b7100000000000000000000000000000000000000000000000000000000600052601260045260246000fd5b7f4552433732313a206d696e7420746f20746865207a65726f2061646472657373600082015250565b600061307a602083611df0565b915061308582613044565b602082019050919050565b600060208201905081810360008301526130a98161306d565b9050919050565b7f4552433732313a20746f6b656e20616c7265616479206d696e74656400000000600082015250565b60006130e6601c83611df0565b91506130f1826130b0565b602082019050919050565b60006020820190508181036000830152613115816130d9565b905091905056fea2646970667358221220a1825e44b5f0bf6b449bdf7dc5bd48ef5d559ab7b9fe8776a6151e7840cbadb064736f6c63430008140033",
  "linkReferences": {},
  "deployedLinkReferences": {}
}